:040000008A1598289D
:10000600203083120313F0004E30F100F201F301A9
:020016000800E0
:10001800831203132230FC00F801F901FA01FB01F5
:10002800FC03031942280310FB0CFA0CF90CF80C1A
:10003800F30CF20CF10CF00C031C1428FC0303194C
:1000480034287408F80775080318750FF907760837
:100058000318760FFA0777080318770FFB07182895
:100068007408F80775080318750FF9077608031858
:0E007800760FFA0777080318770FFB070800CA
:1000860083120313FB01FA01F901F801A001730DB4
:10009600F80D7408F8027508031C750FF902760846
:1000A600031C760FFA027708031C770FFB02000188
:1000B600031C0130A002F30D0730FC00730DF80D90
:1000C600F90DFA0DFB0DA00D7408731C7C28F802BF
:1000D6007508031C750FF9027608031C760FFA02E1
:1000E6007708031C770FFB020001031C0130A002F6
:1000F6008D28F80775080318750FF9077608031891
:10010600760FFA0777080318770FFB070001031825
:100116000130A007F30DFC0B6128720DF80DF90DE7
:10012600FA0DFB0DA00D7408731CAB28F8027508B8
:10013600031C750FF9027608031C760FFA0277087E
:10014600031C770FFB020001031C0130A002BC2830
:10015600F80775080318750FF90776080318760F60
:10016600FA0777080318770FFB0700010318013019
:10017600A007F20D0730FC00720DF80DF90DFA0D0F
:10018600FB0DA00D7408721CDA28F8027508031C12
:10019600750FF9027608031C760FFA027708031C1E
:1001A600770FFB020001031C0130A002EB28F807C1
:1001B60075080318750FF90776080318760FFA07FE
:1001C60077080318770FFB07000103180130A00713
:1001D600F20DFC0BBF28710DF80DF90DFA0DFB0D94
:1001E600A00D7408721C0929F8027508031C750F06
:1001F600F9027608031C760FFA027708031C770FBC
:10020600FB020001031C0130A0021A29F807750839
:100216000318750FF90776080318760FFA0777089B
:100226000318770FFB07000103180130A007F10D33
:100236000730FC00710DF80DF90DFA0DFB0DA00D40
:100246007408711C3829F8027508031C750FF90229
:100256007608031C760FFA027708031C770FFB0259
:100266000001031C0130A0024929F807750803188C
:10027600750FF90776080318760FFA07770803183B
:10028600770FFB07000103180130A007F10DFC0BE7
:100296001D29700DF80DF90DFA0DFB0DA00D740852
:1002A600711C6729F8027508031C750FF902760898
:1002B600031C760FFA027708031C770FFB02000176
:1002C600031C0130A0027829F80775080318750F7A
:1002D600F90776080318760FFA0777080318770FD9
:1002E600FB07000103180130A007F00D0730FC00E2
:1002F600700DF80DF90DFA0DFB0DA00D7408701CAC
:100306009629F8027508031C750FF9027608031C76
:10031600760FFA027708031C770FFB020001031C15
:100326000130A002A729F80775080318750FF90709
:1003360076080318760FFA0777080318770FFB0776
:10034600000103180130A007F00DFC0B7B29701883
:10035600BA297408F80775080318750FF90776089F
:100366000318760FFA0777080318770FFB070800BC
:1003760083120313F801F9011030FC00710DF80D1A
:10038600F90D7408F8027508031C750FF9020318B5
:10039600D3297408F80775080318750FF9070310B1
:0A03A600F00DF10DFC0BC129080059
:1003B00083120313B703B7033708003C0318E5297A
:1003C000B703000000000000DC290000000000006E
:0603D0000000000008001F
:1003D60083120313870189140430FB00CF30FC001D
:1003E6000130FD00FD0BF529FC0BF529FB0BF5296A
:1003F6000000000089103330FB00BB30FC00DF300A
:10040600FD00FD0B042AFC0B042AFB0B042A00004A
:0804160000008701EE29080037
:10041E0083120313F101F20100307202031D192A37
:10042E00323071020318342A85150A30FC00BC30B4
:10043E00FD00FD0B202AFC0B202A000085117930CF
:10044E00FC001F30FD00FD0B2A2AFC0B2A2A00009F
:0C045E000000F10A0319F20A132A08003A
:10046A0083120313061C442A861C442A0619442AAA
:10047A00861D442A061E442A28308700FB2A061CA9
:10048A00512A8618512A0619512A8619512A061EF6
:10049A00512A28308700FB2A06185E2A86185E2A07
:1004AA0006195E2A86195E2A061A5E2A28308700ED
:1004BA00FB2A061C6B2A86186B2A061D6B2A861DC8
:1004CA006B2A061E6B2A08308700FB2A0618782A30
:1004DA00861C782A061D782A861D782A061E782AFE
:1004EA0064308700FB2A061C852A861C852A061D7D
:1004FA00852A8619852A061E852A64308700FB2AE2
:10050A00061C922A861C922A061D922A861D922A67
:10051A00061A922A65308700FB2A061C9F2A86182B
:10052A009F2A06199F2A861D9F2A061E9F2A08307F
:10053A008700FB2A061CAC2A861CAC2A0619AC2AA0
:10054A008619AC2A061EAC2A64308700FB2A061CD0
:10055A00B92A861CB92A0619B92A8619B92A061A85
:10056A00B92A65308700FB2A0618C62A8618C62AC1
:10057A000619C62A861DC62A061EC62A1E308700E6
:10058A00FB2A061CD32A861CD32A061DD32A8619BF
:10059A00D32A061AD32A65308700FB2A0618E02ACE
:1005AA008618E02A061DE02A861DE02A061EE02A91
:1005BA001E308700FB2A0618ED2A8618ED2A06192E
:1005CA00ED2A8619ED2A061EED2A1E308700FB2A1F
:1005DA00061CFA2A8618FA2A0619FA2A8619FA2A03
:0E05EA00061AFA2A65308700FB2A87010800EE
:0E05F800F201F101F001F801F30100300800FA
:100606000320E830F4000330F500F601F7010C2072
:100616007008B3007108B4007208B5007308B6001C
:100626002B08F4002C08F500F601F70143207008AA
:10063600B3007108B4007208B5007308B6007008FC
:10064600F5007108F6007208F7007308F800F80C58
:10065600F70CF60CF50CF813F80CF70CF60CF50C79
:10066600F8137508F0007608F1007708F2007808AC
:10067600F300F30CF20CF10CF00CF3137008AF005E
:100686007108B00003202D08F4002E08F500F601CD
:10069600F7010C202F08F9003008FA00FB01FC01D5
:1006A6000330F8007908F4007A08F5007B08F600B4
:1006B6007C08F70078080319672BF40DF50DF60D85
:1006C600F70D7410FF3E5E2B43207008B3007108CF
:1006D600B4007208B5007308B6000A30F4000030A2
:1006E600F5002F08F0003008F100BB217008AF00BC
:1006F6007108B00000307102031D832B03307002B5
:100706000318862B0800250884003608003C031DC4
:10071600962B3508003C031D962B3408003C031D20
:10072600962B3308003C0318D12B2608800430088A
:100736000319AD2BB101B20100303202031DA52B06
:10074600300831020318AD2BB701D821B10A0319BD
:10075600B20A9F2B2F08B700D8212408800530083D
:100766000319C52BB101B20100303202031DBD2BA6
:10077600300831020318C52BB701D821B10A031975
:10078600B20AB72B2F08B700D8210130B302031CD9
:10079600B402031CB502031CB602882B240880058C
:0207A600080049
:1007A8007B15FB1FDE2B0130F300F201F101F00194
:0807B800FA0DF20CFF300800FD
:0807C000FA1FF21300300800DB
:1007C80083120313061CEC2B061EEC2B8701EF2B60
:1007D80065308700E42B0D30FB00AF30FC00B630ED
:1007E800FD00FD0BF52BFC0BF52BFB0BF52B00008F
:1007F8000618202C8618202C0619202C8619202C47
:10080800061A202C87017030AB000330AC00E830AA
:10081800AD000330AE0003230F220D30FB00AF30D4
:10082800FC00B630FD00FD0B172CFC0B172CFB0B46
:10083800172C0000EB21222C3522FC2B8701080005
:100848007B14FB1F2F2CF201FA1FFF30F200F1007E
:0A085800F000FA0DF20CFF3008006A
:10086200A1017208031D462C7108F2007008F10004
:10087200F001A1157208031D462C7108F200F10166
:10088200A111211672080319542C2108F302031D29
:10089200031C582C0310F21B5C2CF00DF10DF20D11
:1008A200F30B4C2C582C0130FC00FC225F2C023044
:0E08B200FC00D4235F2C0430FC00E02308007F
:1008C000FB14FB1F6A2CFF30F300F200F100F00074
:0808D000FA0DF20CFF300800E4
:0608D800FB15FF300800D3
:1008DE0083120313F101F20100307202031D792C11
:1008EE00323071020318942C05150A30FC00BC300E
:1008FE00FD00FD0B802CFC0B802C000005117930C7
:10090E00FC001F30FD00FD0B8A2CFC0B8A2C000016
:10091E000000F10A0319F20A732C0630FB001330A3
:10092E00FC00AD30FD00FD0B9A2CFC0B9A2CFB0B42
:10093E009A2C00000000F101F20100307202031D3A
:10094E00AA2C323071020318C52C85150630FC0016
:10095E003030FD00FD0BB12CFC0BB12C00008511CD
:10096E007D30FC00AB30FD00FD0BBB2CFC0BBB2C1B
:10097E0000000000F10A0319F20AA42C0630FB0055
:10098E001330FC00AD30FD00FD0BCB2CFC0BCB2C43
:10099E00FB0BCB2C00000000F101F20100307202C3
:1009AE00031DDB2C323071020318F62C05150630B0
:1009BE00FC003030FD00FD0BE22CFC0BE22C0000A5
:1009CE0005117D30FC00AB30FD00FD0BEC2CFC0B5B
:1009DE00EC2C00000000F10A0319F20AD52C0800D5
:1009EE00831203137408003A031D122D7508003A82
:1009FE00031D122D7608003A031D122D7708003ABA
:100A0E00031D122DFF30F000FF30F1007F30F20099
:100A1E00FF30F30008008312031377080319A12D8A
:100A2E0073080319A42D720876068039FA00F2179E
:100A3E00F617A1017208F8007108FC007008FD009D
:100A4E007408FD027508031C750FFC027608031C62
:100A5E00760FF802F801FC01FD01031C3D2D031079
:100A6E00F20CF10CF00CF80C0130A1007708F30237
:100A7E00031C472D7E302107F3070318A72D4C2D9D
:100A8E007E302107F307031CAA2D1830FA07FD0D3F
:100A9E00FC0DF80DF00DF10DF20DA10D7408F00224
:100AAE007508031C750FF1027608031C760FF2020F
:100ABE00760DA104211C652D7D14702D7408F00790
:100ACE0075080318750FF10776080318760AF207F2
:100ADE007D10FA031F307A05031D4E2D7B1B7D1CE6
:100AEE00972D0310F00DF10DF20DA10D7408F0020B
:100AFE007508031C750FF1027608031C760FF202BF
:100B0E00760D21040139FD070318FC0A0319F80AB2
:100B1E00031D972DF80CFC0CFD0CF30A0319A72DE1
:100B2E00FA1FF8137808F2007C08F1007D08F00037
:100B3E000030AC2D01306C24AC2D0230FC22AC2DDB
:0E0B4E0004306024AC2D0830D42300000800D1
:100B5C008312031306180D2E86180D2E06190D2E52
:100B6C0086190D2E061A0D2E87017030AB0003303E
:100B7C00AC00F430AD000130AE000323891003301B
:100B8C00FB008A30FC005530FD00FD0BCB2DFC0B1F
:100B9C00CB2DFB0BCB2D0000000089147030AB006B
:100BAC000330AC00F430AD000130AE0003231A303A
:100BBC00FB005E30FC006E30FD00FD0BE32DFC0BEA
:100BCC00E32DFB0BE32D0000283087000830FB00E1
:100BDC009D30FC000530FD00FD0BF22DFC0BF22DC1
:100BEC00FB0BF22D00000000653087001030FB007D
:100BFC003930FC000D30FD00FD0B022EFC0B022EDB
:100C0C00FB0B022E000000008701E423192E352275
:100C1C000D30FC00FB30FD00FD0B122EFC0B122ED8
:080C2C0000000000AE2D0800DD
:100C340083120313FB0173080319572E7208FA0079
:100C4400F2178E30F302F31F5A2EF309F30A083019
:100C54007302031C3D2EF300F10D7208F100F20142
:100C640008307302031C3D2EF300F10DF1017308EB
:100C7400031D0310452E73080319452E0310F20CAF
:100C8400F10CF30B402E7B1B711C4F2E031C4F2EBB
:100C9400F10A0319F20AF21B662EFA1F692EF209F1
:100CA400F109F10A0319F20A692EF201F101692E20
:100CB4007B14FB1F6C2EF201FA1F6C2EFF30F20026
:100CC400F100FA0DF20C6C2E0130FC006E2E003097
:100CD400FC006E2EFF30FC00FC080319722E242445
:0A0CE4007108F0007208F10008002A
:100CEE0083120313FB01FA01F9018030F800F10CB5
:100CFE00F00C031C8B2E7408F90775080318750F7A
:100D0E00FA070318FB0A0310F01F932E7408FA0754
:100D1E0075080318750FFB07FB0CFA0CF90CF80C91
:100D2E00031C7E2E7B08F3007A08F2007908F1008E
:060D3E007808F000080037
:0E0D44008312031323088A002208820008008D
:100D5200831203137008F8007108F000F101F20128
:100D6200F301FB01FC019630F300FA01F01FBF2EE4
:100D7200F809F009F80A0319F00AFA177008F100E5
:0C0D82007808F000F801F20131240800AC
:100D8E0083120313F101F20100307202031DD12E02
:100D9E00323071020318EC2E05150630FC0030308F
:100DAE00FD00FD0BD82EFC0BD82E000005117D305A
:100DBE00FC00AB30FD00FD0BE22EFC0BE22E000022
:100DCE000000F10A0319F20ACB2E0630FB00133095
:100DDE00FC00AD30FD00FD0BF22EFC0BF22EFB0BDA
:100DEE00F22E00000000F101F20100307202031D2C
:100DFE00022F3230710203181D2F85150A30FC00A8
:100E0E00BC30FD00FD0B092FFC0B092F00008511D6
:100E1E007930FC001F30FD00FD0B132FFC0B132F40
:0E0E2E0000000000F10A0319F20AFC2E080071
:100E3C00A2268A110A128000840AA20A0319A30AA4
:080E4C00F003031D1E2F080036
:100E5400831203132708A5002808F1000130F000CD
:100E640071080319392FF00D7010FF3E332F7008ED
:100E7400A600F0097008A4008030270784007008D9
:0A0E84008005841370088005080043
:100E8E00831603131208013EF000F1010318F10A54
:100E9E0083122708F400F50177260630F200700859
:100EAE00F4007108F50072080319622FF50CF40CAA
:100EBE00F513FF3E5B2F0430F1007408F00071084B
:100ECE0003196D2FF00D7010FF3E672F8312031361
:100EDE0030307005F3007408F0007508F100F10C65
:100EEE00F00CF113F10CF00CF11370089B000F30A5
:080EFE009D0573089D04080026
:100F0600831603138710831212150C309D040800F4
:100F1600831603131208013EF000F1010318F10ACB
:100F260083122708F400F50177260630F2007008D0
:100F3600F4007108F50072080319A62FF50CF40CDD
:100F4600F513FF3E9F2F0430F1007408F00071087E
:100F56000319B12FF00D7010FF3EAB2F8312031350
:100F660030307005F3007408F0007508F100F10CDC
:100F7600F00CF113F10CF00CF113700895000F3022
:080F86009705730897040800A9
:100F8E00831603130711831212150C3097040800F1
:0C0F9E00831203139B011D129D1208001A
:10100000831203138F018E0105141030FD00FD0BB8
:1010100007280000051085180E280B281014851CC1
:1010200012280F2810100F08F100F0010E08F0042C
:101030000030F1047008A7007108A8008A11A926E1
:101040008A15AE30F4004730F5006B30F60084307E
:10105000F7008A11F7248A158A111A268A15700852
:10106000A7007108A8007008013EF20000300318C4
:10107000013E7107F3007208A7007308A8008030D2
:101080007306F00080307002031D4828023072029F
:10109000031C85288030F000803028067002031D74
:1010A000532827080B3C031C8528870189147030BE
:1010B000AB000330AC00F430AD000130AE008A115B
:1010C00003238A1589100330FB008A30FC00553059
:1010D000FD00FD0B6928FC0B6928FB0B692800004B
:1010E000000089147030AB000330AC00F430AD0068
:1010F0000130AE008A1103238A1589108A116F24EA
:101100008A158A11AE258A1597288A1135228A15E3
:101110000330FB008A30FC005530FD00FD0B8E28AB
:10112000FC0B8E28FB0B8E28000000000028080016
:101130000630831603139F0007309C0002308500A1
:10114000FF308600FF30880087018901103083124C
:1011500090008901121492149C30831692008A1117
:10116000CF278A158A11C7278A158A1183278A15DE
:10117000B430A7008A118B278A15B430A7008A11D2
:1011800047278A15870189140930A700A8018A1109
:101190002A278A157030AB000330AC00FA30AD005E
:1011A000AE018A1103238A150630FB001330FC00C0
:1011B000AD30FD00FD0BDA28FC0BDA28FB0BDA283A
:1011C000000000007030AB000330AC00FA30AD001E
:1011D000AE018A1103238A1589108A11C7268A1540
:1011E0000815081D0D29F830AB000230AC00E830BE
:1011F000AD000330AE008A1103238A150D30FB00C9
:10120000AF30FC00B630FD00FD0B0429FC0B0429B7
:0E121000FB0B0429000000200E29F0280E29F7
:02400E004A2F37
:00000001FF
